:02000002B0004C
:1040000000400B008C800B00000006000C00050235
:084010000401E50C00000000B2
:04401800B4700B0075
:10401C0009480A49884208B505D0094A824202D0AB
:10402C00121A02F085FF0748074A0021121A02F003
:10403C008DFF014808BD00BF54E50320F87F0B003D
:10404C00C0E50320C0E50320EDE7032070B5074E63
:10405C00074C01F0A3FFA41BA4080025AC4200D11F
:10406C0070BD56F8043B98470135F7E7A47F0B0069
:10407C00C87F0B0000F022B808B500F035F8BDE899
:10408C00084001F043BF01F00BBD01F009BD01F088
:10409C000FBD000008B5034A03490C2001F05CFC7D
:1040AC00FEE700BF65560B00C8700B000078B0FA35
:1040BC0080F04009704701230370704708B5012157
:1040CC00052002F063FD074800F04AFD0548012178
:1040DC0000F0F7FC03484FF001134361BDE80840C2
:1040EC0001F0D8B92CE60320F8B54348424D434CB7
:1040FC0000F05FFD404800F075FD002863D0236898
:10410C0003F5BB53103323603D4B01221A603D4F26
:10411C003D4E3B68336001F0A7FA33683860C01A33
:10412C003A4B18602368181A002820600EDC344EB5
:10413C003368012B08D140F6B8324FF47A71052060
:10414C0002F06CF8002333600023236000232B6102
:10415C0029482F4D00F030FF23682E4C26484FF491
:10416C007A7293FBF2F32C4A3C21136093FBF1F22D
:10417C0001FB1233294922602B6001F01AFE2468DE
:10418C00002C35DA2D211C4801F004FE61420A2274
:10419C00194801F018FE2249174801F0F7FD2C6868
:1041AC00002C27DA2D21144801F0F4FD61420A227B
:1041BC00114801F008FE104801F0EFFDBDE8F84091
:1041CC000D4801F067B9284600F016FD28B12368A8
:1041DC0003F5922303F5787395E7284600F016FD56
:1041EC00002894D0236803F5122303F5F8638AE7BB
:1041FC002146CCE72146DAE72CE60320B4E603207F
:10420C0028E60320A0E603209CE60320A4E6032076
:10421C00ACE60320B0E60320A8E60320DD700B001B
:10422C00E2700B0038B5134D284602F06DFB05F11A
:10423C001C0001F01FFF104B00242146C3E9005461
:10424C00C3E90244C3E904449C619C8301206C6370
:10425C002C8701F0A1FB094B094A9A60C3E9004481
:10426C00032001F089FBBDE838400648072100F027
:10427C0049BC00BFECE50320C0E50320E0E50320CA
:10428C000000FFFF2CE60320704710B510210446F8
:10429C00FFF7FDFE204610BD0EB403B503AB0021A5
:1042AC0053F8042B019301F0ACFD02B05DF804EB64
:1042BC0003B0704773B5044608462279A36832B13F
:1042CC00A3B90B4902B0BDE8704001F05FBD094ACB
:1042DC00267B094D0949647B012E18BF2946CDE97F
:1042EC0000140749FFF7D8FF02B070BD054AEFE78D
:1042FC00F5700B00EC700B00F1700B00ED700B0007
:10430C000B710B00E4700B002DE9F04F85B01F46CC
:10431C00BDF93880BDF83C30A8EB0209A7EB010AC7
:10432C00B9F1000FB8BFC9F10009BAF1000FB8BF5D
:10433C00CAF1000AD14583460C46154604DD3A46BF
:10434C002C4647460D469046BC4205DD2A4645465E
:10435C00904622463C4617463E1BB2B20092A8EB52
:10436C00050282EAE271A1EBE271C6F3C03202FAF5
:10437C0086F64545B4BF01224FF0FF32019176100D
:10438C000292BC421CDCDBF800200393D145D2F82E
:10439C001880C7BF294622462A4621465846C047A0
:1043AC00019A039BB61AB1B236B2002E05DA029A04
:1043BC001544009A56182DB236B2013424B2E0E7F7
:1043CC0005B0BDE8F08F704710B404682469A446AA
:1043DC005DF8044B604730B40468BDF80850029592
:1043EC00A46BA44630BC604730B40468BDF80850D8
:1043FC000295E46BA44630BC604770B4BDF90C5018
:10440C00BDF810600468CDE90356246CA44670BC5A
:10441C0060472DE9F3411C460368BDF820805B69B9
:10442C0005461646013C34440F4624B298472B6887
:10443C00CDF8048000949C6A28463B4632463946A7
:10444C00A0472B68DB6A284602B0BDE8F04118474C
:10445C002DE9F3411D460368BDF820805B690446D5
:10446C0017460E469847CDE9007822686B1E3344F8
:10447C00956A20461BB23A463146A8472368DB6A48
:10448C00204602B0BDE8F04118472DE9F3471E461F
:10449C000368BDF928905B69BDF82C800C46054675
:1044AC00174698472644B4422B680BDACDF80080A7
:1044BC00D3F820A021464B463A4628460134D04733
:1044CC0024B2F0E7DB6A284602B0BDE8F047184793
:1044DC0013B502680191B0F90E100091146CB0F98B
:1044EC000C3000221146A04702B010BD2DE9F74355
:1044FC0099421646BDF92870BDF82C90026880468A
:10450C000D461C4613D1BE42C8BF3346CDF8289089
:10451C00C4BF3E461F467B1C946B9B1B1BB2324692
:10452C0029464046A44603B0BDE8F0436047BE426E
:10453C000AD19942C2BF0B4625461C46631CCDF8D6
:10454C002890D46B5B1BE9E753699847CDE9007958
:10455C00D8F8003040469F6A324623462946B84771
:10456C00D8F80030DB6A404603B0BDE8F04318478A
:10457C002DE9F3471D460368BDF82C805B69BDF936
:10458C00289004460F46164698472368CDF80080BD
:10459C00D3F824A032462B4639462046D047236810
:1045AC00CDF8008009F1FF323244D3F824A039460B
:1045BC002B46204612B2D0472368CDF80080D3F8A2
:1045CC0020A032464B4639462046D0476B1ED9199F
:1045DC002368CDF800801D6A20464B46324609B24E
:1045EC00A8472368DB6A204602B0BDE8F0471847AD
:1045FC00704701F00303B0F90A208376C907B0F9BC
:10460C00083059BF8381C2818281C3817047000009
:10461C0030B54281C281074A074D01810024818156
:10462C004FF0FF31C0E90512446005600461047766
:10463C00046230BD0101000130760B002DE9F04F12
:10464C0089B0CDE902120268BDF948800493BDF926
:10465C004C3052690593BDF850A00446904718F1B0
:10466C0007024FF0000648BF08F10E024FEAE20BBA
:10467C0001963546039B019ABDF904109A18059BC7
:10468C008B4212B227DD049B33444FF00009069392
:10469C000FFA89F080451FFA89F117DD4F0705BF26
:1046AC00069BC0106D001D5C18BFEDB22B060AD521
:1046BC00029B206807921944836909B21F46204661
:1046CC005346B847079A09F10109E1E7019B013309
:1046DC0001935E44CEE72368DB6A204609B0BDE84F
:1046EC00F04F18472DE9F04F2DED028B91B0164687
:1046FC00026ABDF874809DF878509DF87C40039157
:10470C001F46BDF8703004938346002A40F0C580E4
:10471C00B0F90C308B4240F34C81B0F90E30B342FF
:10472C0040F34781062313FB0513002B40F3418113
:10473C0006EBC403002B40F33C81037F1BB9AF2F66
:10474C0084BF0137FFB2DBF8003058465B699847ED
:10475C000522099200220592984A07EB8703D31889
:10476C000C93B3B20693059A0C9B9B5C0793ABB26C
:10477C000B93BDF80C300893039B02FB05F919FA57
:10478C0083F90FFA89F308EE103A08230A93039B76
:10479C0002EB030A4FF000090FFA8AFA079ADBF8CA
:1047AC000030D20752D5012D1FFA89F23ED1012CCF
:1047BC003CD19B6906991F46049B0A4412B2514690
:1047CC005846B84709F101034FFA83F9079B5B0878
:1047DC0007930A9B013B13F0FF030A93DED1059F5D
:1047EC0001377BB20593099B013B13F0FF0309933F
:1047FC00B9D1049B43450FD0012DDBF800303BD1E0
:10480C00012C39D10899CDF8008005311C6A32464B
:10481C00082309B25846A047DBF80030DB6A58463B
:10482C0011B0BDEC028BBDE8F04F1847069914FB94
:10483C0002F20A44049901910094DB6918EE101AF3
:10484C001F4612B22B465846B847BBE7049A42455E
:10485C00B8D0012D1FFA89F207D1012C05D19B6923
:10486C0006991F460A444346A8E70699CDF80480EA
:10487C0014FB02F20A44DFE70B9ACDF8048002EB3A
:10488C008201089AE4000A4411460094DC6932461D
:10489C002B4609B25846A047BEE7137A51681268F6
:1048AC000B92FF1AFFB201EBC70331F837200692C7
:1048BC009A780992DA780C92012D93F9052093F9E4
:1048CC0006A00A9201D8012C57D9BDF928300893BB
:1048DC000FFA8AF30793DBF8003058465B69984768
:1048EC00B3B24FF000080E931AFA86F3C14647464E
:1048FC000F930C9B9F428FD2079B0E9A3B4403FB5A
:10490C000423002205920F9A1BB202EB070A08EE51
:10491C00103A0FFA8AFA4346099A0599914241D204
:10492C005A1CD2B25B070D9207D1069B06990B9AC3
:10493C0001339BB212F80190069319F0800F12D03C
:10494C00012DDBF80030BDF80C101AD1012C18D158
:10495C000A9A9B691144059A11441E465246049BBF
:10496C0009B25846B047059E0136F3B24FEA4909E1
:10497C0005935FFA89F90D9BCEE70023CDE9073348
:10498C00A9E70598089A024402FB0511049ACDE99F
:10499C000042DB6918EE102A1E4609B22B46584617
:1049AC00B047E0E7099B013798445FFA88F8FFB2FB
:1049BC009FE711B0BDEC028BBDE8F08F28710B00A6
:1049CC00F0B5026A85B004460B46002A34D10A2998
:1049DC0008D1438A0282427E03EBC2036382012028
:1049EC0005B0F0BD0D29FAD0E17E007E657E71B177
:1049FC00B4F91060062111FB0061B4F90C60B142EE
:104A0C00C1BFB4F91210228201EBC5026282E28AA4
:104A1C000192A28A0092CDE90205B4F91220B4F9F0
:104A2C0010102046FFF75EFE237E228A03EB430321
:104A3C0002EB43032382D2E70A2907D10023038226
:104A4C00417E927A438A01FB0233C7E70D29C6D017
:104A5C00157AA942C3D3517A9942C0D351685D1BD0
:104A6C00EDB201EBC505A87828B3E97819B3E17E5E
:104A7C00267E677E91B195F905100844B4F91010A3
:104A8C0006FB0011B4F90C00814207DD00202082E6
:104A9C00B4F91210927A02FB07126282E28A019236
:104AAC00A28A0092CDE90267B4F91220B4F9101071
:104ABC002046FFF717FE2979227E238A01FB023359
:104ACC00B8E7012938BF0121017641767047000013
:104ADC0010B5064B03600446006D08B100F0D4FD20
:104AEC00204600F0F7F8204610BD00BF88760B007A
:104AFC0010B50446FFF7ECFF20467021FFF7C7FA0C
:104B0C00204610BD30B585B004460D4602F0D2F8F3
:104B1C00104A1149CDE901214FF0FF3280210346A3
:104B2C0000922046202200F04DF90C4B236000230C
:104B3C00C4E9143504F1580000F072F804F1600077
:104B4C0000F06EF804F1680000F06AF8204605B039
:104B5C0030BD00BF801A0600A086010088760B00CD
:104B6C0013B50446503000F087FD636DD90705D5A9
:104B7C000222042104F1580000F066F8636D9A07D4
:104B8C0005D50022032104F1600000F05DF8636D8F
:104B9C005B0705D50222114604F1680000F054F8B9
:104BAC00012300933C220221204600F013FA02B0AC
:104BBC0010BD10B5436DD907044602D5583000F02E
:104BCC0050F8636D9A0703D504F1600000F049F8C2
:104BDC00636D5B0705D504F16800BDE8104000F07B
:104BEC0040B810BD436D024613F0010003D002F132
:104BFC00580000F066B87047436D024613F002008F
:104C0C0003D002F1600000F05CB87047436D0246BF
:104C1C0013F0040003D002F1680000F052B87047A2
:104C2C0000210A22C0E900127047002310B5044687
:104C3C00C171837188B201F0D3FF08B10323A37152
:104C4C0000F012FD206010BD38B50C46054611462B
:104C5C00A0B201F09BFF21462846BDE83840FFF783
:104C6C00E4BF38B50446C07901F0BAFFA579003825
:104C7C0025F0080318BF0120C5F340058542A37138
:104C8C000AD000F0F1FCA379206083F00203A37139
:104C9C00A079C0F3C00038BD00F0E6FC2368C01A50
:104CAC00A3889842F4D3A37903F00103AB42EFD06D
:104CBC0000F0DAFCA379206083F0010343F00803D1
:104CCC00E5E7807900F00900A0F10803584258414B
:104CDC007047000010B5044B03600446C06A08B16D
:104CEC0000F0E6FE204610BD947B0B0010B5044688
:104CFC00FFF7F0FF20465021FFF7C9F9204610BD01
:104D0C00002910B54BDBB0F90C408C4247DD002A72
:104D1C0045DBB0F90E40944241DD847E022C1FD05D
:104D2C00032C26D0012C04D10489D24314440A4606
:104D3C0021B2012B23D0022B32D083BB002A134685
:104D4C000489C06AB8BFD31DDB1013FB041102F039
:104D5C00070201239340425C22EA030242541EE004
:104D6C000489013C611A4489D243224409B212B22B
:104D7C00DFE74489013C641A114622B2D9E7002AC4
:104D8C0004891346B8BFD31DDB1013FB0411C36A8F
:104D9C0002F0070001228240585C02435A5410BDB5
:104DAC00002A13460489C06AB8BFD31DDB1013FB5D
:104DBC00041102F00702012303FA02F2435C5A4089
:104DCC00CCE7000070B504461D460026FFF720FC1A
:104DDC00114B2360666215B901F06CFF0546FF2389
:104DEC0084F8333084F836309DF9103084F837303D
:104DFC000A4BA363012384F83C30059BA3644FF654
:104E0C00FF72069BA286C4E90A562664A4F8446085
:104E1C00E364204670BD00BF947B0B00E0760B0072
:104E2C00F8B50446806A0D4690B194F9301001F043
:104E3C00A9FAA06A036800219B689847A06A0368D6
:104E4C0029469B689847A06ABDE8F84001F0A1BAD2
:104E5C0094F93530014698B201F0A9FE606A20B190
:104E6C002946BDE8F84000F035BF0826802794F9A4
:104E7C00330005EA070180B201F099FE94F9340081
:104E8C00012180B201F093FE94F93400002180B22C
:104E9C0001F08DFE013E4FEA5707E8D1F8BD38B559
:104EAC000446806A0D4680B1A16C01F05DFA002DBC
:104EBC00204614BFA721A621FFF7B2FFA06A88B134
:104ECC00E16CBDE8384001F04FBA606A18B104F1EA
:104EDC00380100F091FE94F93600002180B201F007
:104EEC0066FEE4E794F93600012180B201F05FFE22
:104EFC00606A18B1BDE8384000F064BE38BD2DE9D9
:104F0C00F8430446806A0D468F1840B394F930106C
:104F1C0001F038FAA06A036800219B6898470126C3
:104F2C00AF42A06A17D01F2E0CD901F032FA94F9B7
:104F3C003010A06A01F026FAA06A036800219B6871
:104F4C0098470126A06A15F8011B036801369B6877
:104F5C009847F6B2E4E7BDE8F84301F01ABA94F9C1
:104F6C003530014698B201F022FEBD4222D0606A73
:104F7C0015F8019B18B1494600F0ACFEF5E7082680
:104F8C004FF0800894F9330009EA080180B201F06F
:104F9C000EFE94F93400012180B201F008FE94F960
:104FAC003400002180B201F002FE013E4FEA5808A5
:104FBC00E8D1DAE7BDE8F883B0F90A30DA1D48BF6A
:104FCC0003F10E02B0F90830C06AD2105A43002126
:104FDC0001F0BCBF2DE9FF411E46C36A9DF8288035
:104FEC0004460F461546C3B12046FFF7E5FFB4F95A
:104FFC000A00B4F90810202821DC202301222038D3
:10500C00CDE9013200EBD07073237339009301EBBF
:10501C00D171894B40F34F0221E0B0F90A30D81D11
:10502C0048BF03F10E00B4F90830C010584300F02B
:10503C0037FDE0620028D7D104B0BDE8F0814038DC
:10504C00C0F3C03202FA80F240230120CDE90130D6
:10505C00522352390093794B01EBD17152102046F7
:10506C0041F34F01FFF7EAFAA06A84F83170002887
:10507C0078D0002D74D1B4F90A30202B0CBF3C250C
:10508C003D2584F83050B8F1000F01D001F070F9D3
:10509C00FEB194F9370000281BDB012180B201F02E
:1050AC0075FD94F93700012180B201F080FD0120DB
:1050BC0000F0EAFE94F93700002180B201F077FD90
:1050CC000A2000F0E1FE94F93700012180B201F0D2
:1050DC006EFDA06A002874D0A16C01F045F9042281
:1050EC0057492046FFF70BFF61890139C9B22046A9
:1050FC00FFF796FE534904222046FFF700FF94F970
:10510C003130012B0CBF102114212046FFF788FEF3
:10511C0004224D492046FFF7F2FEA3684B4A934206
:10512C005CD14B4904222046FFF7E9FED9212046E9
:10513C00FFF776FE94F93130012B0CBF2221F121BF
:10514C002046FFF76DFE204642490622FFF7D7FEA8
:10515C00A06A002863D0E16C01F006F901206BE72E
:10516C006DB28EE794F93500012180B201F00EFD8D
:10517C0094F93600012180B201F008FD94F9360053
:10518C00012180B201F013FD656A3DB1B8F1000F49
:10519C003FF47EAF284600F001FD79E794F9330027
:1051AC00012180B201F0F2FC94F93400012180B2AB
:1051BC0001F0ECFC94F93400294680B201F0F7FCC4
:1051CC0066E7606A18B104F1380100F015FD94F936
:1051DC003600002180B201F0EAFC80E71E4A9342BF
:1051EC000ED11E4903222046FFF789FE94F9313077
:1051FC00012B0CBF9F21CF212046FFF711FE95E715
:10520C00174A934292D1174903222046FFF777FEA3
:10521C0094F93130012B0CBF1021AF21ECE794F93C
:10522C003600012180B201F0C2FC606A002895D0E2
:10523C0000F0C8FC92E700BFAC790B00EC760B00D9
:10524C00F47B0B00F87B0B00FC7B0B008000200038
:10525C00067C0B00007C0B00800040000A7C0B00DD
:10526C00600010000D7C0B0070B5002ABDF81050CA
:10527C003DDBB0F90A40944239DD0029BEBF5B1812
:10528C001BB20021B0F90840CE18A642C4BF631A65
:10529C001BB2002B2BDDC06AD61014FB0611014487
:1052AC0002F0070001228240012DD2B216D0022D4D
:1052BC000BD0E5B9D243D2B20B44994217D011F8B6
:1052CC00010B104001F8010CF7E70B4499420ED08A
:1052DC0011F8010B504001F8010CF7E70B4499420F
:1052EC0005D011F8010B104301F8010CF7E770BD64
:1052FC00F0B50029BDF8145076DBB0F90860B14266
:10530C0072DA002ABEBF9B181BB20022B0F90A4009
:10531C00D718A742C4BFA31A1BB2002B64DDC2F37B
:10532C00C404C76A16FB041612F00702DBB207EBC3
:10533C00060423D0C2F10802D2B22D4993423CBFDD
:10534C004FF0FF0CA2EB030E895C3CBF4CFA0EFC39
:10535C000CEA0101012D07D0022D2ED04DB917F802
:10536C0006C02CEA010103E017F806C041EA0C0163
:10537C00B955934238D3B0F908100C449A1AD2B2EA
:10538C00072A0ED9022D1DD113462178C94321704D
:10539C00083BB0F90810DBB2072B0C44F5D802F02F
:1053AC0007020AB3134B012D9B5C1AD0022D1CD0A3
:1053BC00D5B9227822EA030315E017F806C081EA72
:1053CC000C01D5E7291E18BF01214942C9B2134669
:1053DC002170083BB0F90860DBB2072B3444F7D8D6
:1053EC00DDE7227813432370F0BD22785340FAE7AF
:1053FC00E47B0B00EC7B0B0070B41446827EBDF892
:10540C000C60022A0DD0032A18D0012A11D102896E
:10541C00E443144424B203960A46214670BCFFF7B9
:10542C0067BF42890589E44319441444691A24B2BC
:10543C0009B20396224670BCFFF716BF4589194482
:10544C00691A09B2E7E730B41446827EBDF80850F9
:10545C00022A0DD0032A18D0012A11D1E21804898E
:10546C00A41A24B202950A46214630BCFFF7FCBEB2
:10547C000289C9431144E2184489A41A09B224B21E
:10548C000295224630BCFFF733BF4289C943114411
:10549C0009B2E7E72DE9F8430446806A002842D0B8
:1054AC00A16C00F061FF474905222046FFF727FD5C
:1054BC00218901392046C9B2FFF7B2FCB4F90A3090
:1054CC00DE1D48BF03F10E06D4E90A052389F61048
:1054DC0013FB06F615FA86F600283AD094F930102C
:1054EC0000F050FFA06A036840219B689847012791
:1054FC00B542A06A24D01F2F0CD900F04AFF94F9B2
:10550C003010A06A00F03EFFA06A036840219B683F
:10551C0098470127A06A15F8011B036801379B689F
:10552C009847FFB2E4E7606A18B104F1380100F063
:10553C0063FB94F93600002180B201F038FBB2E72E
:10554C0000F027FFA06A78B3E16CBDE8F84300F0E7
:10555C000BBF94F93500012180B201F028FBAE425B
:10556C00F0D0606A15F8019B18B1494600F0B2FB07
:10557C00F5E708274FF0800894F9330009EA080191
:10558C0080B201F014FB94F93400012180B201F0D7
:10559C000EFB94F93400002180B201F008FB013FAE
:1055AC004FEA5808E8D1DAE794F93600012180B2C5
:1055BC0001F0FDFA606A18B1BDE8F84300F002BBD7
:1055CC00BDE8F883107C0B0008B5024B1B689B6888
:1055DC00019308BD6802030008B5024B1B68DB6829
:1055EC00019308BD6802030008B5024B1B685B6899
:1055FC00019308BD2C02030008B5024B1B689B6885
:10560C00019308BD2C02030008B5024B1B68DB6834
:10561C00019308BD2C02030008B5024B1B681B69E3
:10562C00019308BD2C02030008B5024B1B685B6993
:10563C00019308BD2C02030008B5024B1B685B6983
:10564C00019308BD6C02030008B5024B1B685B6834
:10565C00019308BD1802030008B5024B1B68DB68F8
:10566C00019308BD1802030008B5024B1B685B6967
:10567C00019308BD1802030008B5024B1B681B6B95
:10568C00019308BD4802030008B5024B1B685B6B15
:10569C00019308BD4802030008B5024B1B685B6C04
:1056AC00019308BD4802030008B5024B1B685B69F7
:1056BC00019308BD6402030008B5024B1B681B6A0A
:1056CC00019308BD6402030008B5024B1B689B6A7A
:1056DC00019308BD6402030008B5024B1B68DB682C
:1056EC00019308BD3C02030008B5024B1B681B6903
:1056FC00019308BD3C02030008B5024B1B685B69B3
:10570C00019308BD3C02030008B5024B1B689B6962
:10571C00019308BD3C02030008B5024B1B68DB6912
:10572C00019308BD3C02030008B5024B1B681B6AC1
:10573C00019308BD3C02030008B5024B1B689B6A31
:10574C00019308BD3C02030008B5024B1B681B6C9F
:10575C00019308BD3C02030008B5024B1B681B6893
:10576C00019308BD2802030008B5024B1B68DB68D7
:10577C00019308BD2802030008B5024B1B689B6906
:10578C00019308BD2802030008B5024B1B68DB69B6
:10579C00019308BD2802030008B5024B1B681B6A65
:1057AC00019308BD2802030008B5024B1B685B6A15
:1057BC00019308BD2802030008B5024B1B689B6AC5
:1057CC00019308BD2802030008B5024B1B68DB6A75
:1057DC00019308BD2802030008B5024B1B681B6B24
:1057EC00019308BD2802030008B5024B1B685B6BD4
:1057FC00019308BD2802030008B5024B1B681B6C03
:10580C00019308BD2802030008B5024B1B689B6975
:10581C00019308BD3802030008B5024B1B68DB6915
:10582C00019308BD3802030008B5024B1B681B6AC4
:10583C00019308BD3802030008B5024B1B689B6A34
:10584C00019308BD3802030008B5024B1B681B6BA3
:10585C00019308BD3802030008B5024B1B689B6B13
:10586C00019308BD3802030008B5024B1B681B6886
:10587C00019308BD3002030008B5024B1B685B693D
:10588C00019308BD3002030008B5024B1B68DB69AD
:10589C00019308BD3002030008B5024B1B681B6A5C
:1058AC00019308BD3002030008B5024B1B685B6A0C
:1058BC00019308BD3002030008B5024B1B68DB6B7B
:1058CC00019308BD3002030008B5024B1B681B6C2A
:1058DC00019308BD3002030008B5024B1B685B6CDA
:1058EC00019308BD3002030008B5024B1B681B680E
:1058FC00019308BD2402030008B5024B1B681B680A
:10590C00019308BD4C02030008B5024B1B681B69D0
:10591C00019308BD4C02030008B5024B1B685B6980
:10592C00019308BD4C02030008B5024B1B689B6930
:10593C00019308BD4C02030008B5024B1B68DB69E0
:10594C00019308BD4C02030008B5024B1B681B6A8F
:10595C00019308BD4C02030008B5024B1B685B6B3E
:10596C00019308BD6002030008B5024B1B681B6D58
:10597C00019308BD6002030008B5024B1B685B680D
:10598C00019308BD2002030008B5024B1B685B693C
:10599C00019308BD2002030008B5024B1B68DB6AAB
:1059AC00019308BD2002030008B5034B1B68D3F814
:1059BC008830019308BD00002002030008B5034B9A
:1059CC001B68D3F89430019308BD0000200203003B
:1059DC0008B5024B1B685B68019308BD40020300CD
:1059EC0008B5024B1B689B68019308BD400203007D
:1059FC0008B5024B1B68DB68019308BD400203002D
:105A0C0008B5024B1B681B69019308BD40020300DB
:105A1C0008B5024B1B685B69019308BD400203008B
:105A2C0008B5024B1B689B69019308BD400203003B
:105A3C0008B5024B1B68DB69019308BD40020300EB
:105A4C0008B5024B1B681B6A019308BD400203009A
:105A5C0008B5024B1B681B6B019308BD4002030089
:105A6C0008B5024B1B685B6B019308BD4002030039
:105A7C0008B5024B1B681B6C019308BD4002030068
:105A8C0008B5024B1B685B6C019308BD4002030018
:105A9C0008B5024B1B68DB6B019308BD4402030085
:105AAC0008B5024B1B681B68019308BD1C02030060
:105ABC0008B5024B1B685B68019308BD1C02030010
:105ACC0008B5024B1B685B6A019308BD1C020300FE
:105ADC0008B5024B1B68DB6B019308BD1C0203006D
:105AEC0008B5024B1B681B6C019308BD1C0203001C
:105AFC0008B5024B1B685B6C019308BD1C020300CC
:105B0C00002240681146FFF79BBF002240681146F7
:105B1C00FFF7A6BF40680022FFF79ABF406800223B
:105B2C0081F00101FFF784BF002340681A46194633
:105B3C00FFF776BF002340681A461946FFF768BF87
:105B4C00002240681146FFF75BBF002240681146F7
:105B5C00FFF746BF406800220221FFF749BF002330
:105B6C0040681A46FFF734BF024B03225A60024AC0
:105B7C001A607047C4E60320207C0B000021FFF75D
:105B8C00ABBE0021FFF7A0BE10B50446084621703D
:105B9C00FFF77AFE00236360204610BD13B5044660
:105BAC000078FFF7EEFF58B9207801904FF6FF719F
:105BBC00FFF75AFE019802B0BDE81040FFF7DEBFB8
:105BCC0002B010BD0078FFF7D9BF0000400830B517
:105BDC001860002418688842E5B206D90134082CF4
:105BEC0002D040081860F5E70725024B5B5D137087
:105BFC0030BD00BF547C0B002DE9F04306468FB03E
:105C0C0000780C46FFF7BDFF00281BDB357814220B
:105C1C00002109A801F09AF90B23002209A92846B2
:105C2C00ADF82430FFF740FE9DF82D3013B19DF8F0
:105C3C002C5055B10027B946B846012523795DB1E2
:105C4C00C3B100200FB0BDE8F083DDF830809DF8C3
:105C5C0034909DF83570F1E7002B35D1A36843459E
:105C6C0008D18DF820908DF82170BDF82020A389E3
:105C7C009A42E6D00023A1688DF80F300A9804AB45
:105C8C000DF10F02FFF7A2FF217985B989B9A3683D
:105C9C0043450ED38DF820908DF82170BDF820204F
:105CAC00A3899A4205D1049B434502D1C9E7002937
:105CBC00F9D100230193637B00939DF80F20237B84
:105CCC003078FFF7F9FDBCE7CDE900552B462A46A5
:105CDC000121F5E708B50078FFF7CEFDC0B208BD8D
:105CEC00054B02221A60054B054A9A600020C3E955
:105CFC000000FFF741BE00BFD8E60320CCE603202E
:105D0C000000FFFF10B54368013B0446436063B9D4
:105D1C0003689B689847A368013BA3602BB9236871
:105D2C002046DB68BDE81040184710BD0248002330
:105D3C000360FFF7B1BC00BFDCE60320F8B50646F4
:105D4C000D468F180024BD420CD0336815F8011B8A
:105D5C009B6830469847031E01DB1C44F3E7002C7C
:105D6C0008BF1C462046F8BD13B50446084659B179
:105D7C00019101F02BF923680199DB68024620465A
:105D8C0002B0BDE81040184702B010BD08B5FFF7CF
:105D9C00EBFF08BD03689B68184738B50D21054615
:105DAC00FFF7F8FF0A2104462846FFF7F3FF2044CB
:105DBC0038BD38B50546FFF7D7FF04462846FFF730
:105DCC00ECFF204438BD30B58BB00023012A8DF890
:105DDC00243098BF0A2209AC0D46B1FBF2F101FB4D
:105DEC00125303F0FF03092B94BF30333733DBB26C
:105DFC00AA4204F8013DEFD92146FFF7B5FF0BB0DD
:105E0C0030BD2DE9F04186B000AF05460E46381D79
:105E1C00142114463B60FFF753FE13280ED8391D8E
:105E2C002846FFF7A1FF04461EB12846FFF7B5FF31
:105E3C00044420461837BD46BDE8F08100F1080344
:105E4C0023F00703E846ADEB030D2246411C3B68EB
:105E5C006846FFF735FE69462846FFF785FF04467E
:105E6C00C546E1E7014B024A1A607047E0E60320A1
:105E7C00647C0B00024B1A68024B1A60704700BF1F
:105E8C0054E50320E4E603200021FFF77DBD00006C
:105E9C0010B5044B03600446806908B1FFF732FF6C
:105EAC00204610BD5C7D0B0010B50446FFF7F0FFDB
:105EBC0020461C21FEF7EBF8204610BD014B0022BA
:105ECC009A607047E8E60320014B1860704700BFEA
:105EDC0058E5032008B50B4B43B100F079F9036882
:105EEC001B699847002801DDAFF30080064B43B1D6
:105EFC0000F0A4FE03681B699847002801DDAFF38E
:105F0C00008008BD000000000000000008B5FFF78D
:105F1C00E1FFFFF7A9FB014B186008BD40E7032028
:105F2C000548064A064908B5121A01F001F8054B56
:105F3C00054A1A6008BD00BF00F4032004F40320D6
:105F4C00F47F0B0000F403201E1C279A07B50023D6
:105F5C0000931A466FF07701FFF730FD03B05DF840
:105F6C0004FB000007B543880A2B08D0502B0BD13B
:105F7C00094B1B684BB103B05DF804EB1847FFF7F6
:105F8C00E5FF03B05DF804FB002300931A466FF0A5
:105F9C007701FFF713FDF4E7FCE6032010B5124878
:105FAC000021FFF7A5FD114B1A68114B9A42114BBA
:105FBC000CBF012200221A7001D0FFF7B1FFFFF7CE
:105FCC0043FB044600F0CAFF0B4B13B12046AFF362
:105FDC00008000210848FFF75BFDBDE81040074832
:105FEC000021FFF7E1BC00BFD55E0B0000F40320DD
:105FFC001E1C279AF8E6032000000000715F0B00BE
:10600C00704710B518210446FEF741F8204610BD24
:10601C00F0B5037D062B8DB00E4600F104074FF052
:10602C00000412D000F1080515F8011D0A223046B3
:10603C00FFF7C9FEAF42044419D0002CF4D02E2136
:10604C003046FFF7A7FE0444EEE72F236A46394695
:10605C000A208DF80040FFF727FB684600F0B6FFDA
:10606C0033680246DB68694630469847044620464A
:10607C000DB0F0BD10B5054B0446112240F8043BA1
:10608C00002100F063FF204610BD00BF8C7C0B008C
:10609C000346074A10B543F8042B01F1100251F8DE
:1060AC00044B43F8044B9142F9D10A781A7010BD95
:1060BC008C7C0B00037D042B04D14068003818BF86
:1060CC0001207047062B07D143683BB983682BB975
:1060DC00C3681BB90069F1E70020704701207047C5
:1060EC0010B59DF8084044EA032343EA024242EA11
:1060FC00016104234160037510BD000007B5064B18
:10610C000360CB7800938B784A780978FFF7E8FF27
:10611C0003B05DF804FB00BF8C7C0B00417470472E
:10612C007047704708B50021007CFFF7FDFB40EA83
:10613C00E07008BD08B50121007CFFF7F5FB40EAD3
:10614C00E07008BD08B5007CFFF7E6FB20EAE070C4
:10615C0008BD08B5007CFFF7D7FB20EAE07008BD4E
:10616C0013B50446007C0191FFF7D6FB002801997A
:10617C0001DC607C20B1207CFFF7DEFB20EAE070C4
:10618C0002B010BD007CFFF7DFBB10B51421044634
:10619C00FDF77DFF204610BD10B54FF47A73044611
:1061AC0008460021C4E90113044B23600123207429
:1061BC0063741146FFF7A0FB204610BDA07C0B00BA
:1061CC0010B514220446002100F0C0FE204610BD7C
:1061DC0010B50F4C88B003A8FFF7F2FF2178BFF37E
:1061EC005B8F11F001010FD120460191FDF75EFF8D
:1061FC00019948B103AA0748FFF7CEFF2046FDF7E7
:10620C005AFF054800F08EFE024808B010BD00BFD2
:10621C0000E7032004E703202D610B00F8B587B2DB
:10622C00044638460D46164600F072FC60B1022159
:10623C003846FFF7D9F9022806D1324629462046BE
:10624C00BDE8F840FFF750BBF8BD7047417470478C
:10625C0008B5007CFFF770FA20EAE07008BD08B5BD
:10626C00007CFFF741FA20EAE07008BD08B5007C1D
:10627C00FFF74AFA40EAE07008BD08B5007CFFF76A
:10628C003BFA40EAE07008BD007CFFF745BA37B531
:10629C00457C04462DB1207C03B0BDE83040FFF7AF
:1062AC001BBA007C0191FFF747FA00280199F2DC38
:1062BC00284603B030BD10B514210446FDF7E7FEA7
:1062CC00204610BD10B54FF47A73044608461146AB
:1062DC000022C4E90123044B23600123207463745E
:1062EC00FFF732FA204610BDD07C0B007047F8B592
:1062FC00064615460C468F18BC4206D0336814F877
:10630C00011B9B6830469847F6E72846F8BD007C91
:10631C000022FFF741BA007C0021FFF745BA007C50
:10632C000021FFF749BA007C0021FFF74DBA007C31
:10633C000021FFF751BA10B514210446FDF7A7FE52
:10634C00204610BD10B54FF47A7304460846002160
:10635C00C4E90113034B236020741146FFF74CFA78
:10636C00204610BD007D0B00007C0022FFF7F4B925
:10637C000023007C1A461946FFF7F6B9007C002270
:10638C00FFF7FAB9C9B2FFF7F9BF007C0022FFF79B
:10639C00FBB90121FFF7F9BF13B503688DF807109E
:1063AC00DC6B01224FF0FF330DF10701A04702B067
:1063BC0010BD10B40368DC6B4FF0FF33A4465DF8DE
:1063CC00044B604713B5134602688DF80710D46B65
:1063DC000DF107010122A04702B010BD10B54369B1
:1063EC00B3F88620B3F884309A42044608D0636927
:1063FC00B3F88420511CA3F884101344187910BDF1
:10640C0003681B6998470028F1D14FF0FF30F6E77D
:10641C00704743691868C043C00F7047704700004D
:10642C00064B994210B500F10C0405D0084600F05B
:10643C0067FC002808BF0024204610BD5C7C0B00C4
:10644C0010B5AC210446FDF722FE204610BDAC2150
:10645C00FDF71DBE2DE9F0414FF0000886B01C463B
:10646C00C0F8048005460E4617464146102202A885
:10647C0000F06CFD631C09D04FF47A73B4FBF3F29B
:10648C0003FB1244CDE902285C4304946869102391
:10649C000093006802AB41F2050240F6FF71FFF772
:1064AC00B3F9002807DAFFF713FB03686B600020D1
:1064BC0006B0BDE8F0816869002300683A463146B1
:1064CC00FFF7C2F9031EEEDB1846F1E730B587B0D3
:1064DC00044601AD6846FFF711FE0FCD04340FC41E
:1064EC002B68237007B030BD70B54D69054B044661
:1064FC008C3544F8043B06460FCD0FC42B68237033
:10650C00304670BD8C7C0B002DE9F0439846036837
:10651C0093B00D460024DB6A06461746984728467A
:10652C006B46224621460094FFF756F80546002894
:10653C0063D1009B002B4BD05B69002B48D006A885
:10654C00FFF798FD009B5C696378022B04D1211D39
:10655C0006A8FFF7BBFF26E00A2B24D111222946FF
:10656C0001A800F0F3FCA368002B38D004F1080359
:10657C000DF1040C183418685968624603C20833CC
:10658C00A3429446F7D1062301A90CA88DF8143028
:10659C00FFF77EFD0DF1340CBCE80F0007AC0FC407
:1065AC00DCF80030237006A8FFF784FD80B1336857
:1065BC0007ADD3F82090124B0C930FCD0DAC0FC43C
:1065CC002B6823703A4643460CA93046C84705460B
:1065DC000098FEF7F9FF284613B0BDE8F083E36896
:1065EC00002BC3D14FF6FF70D4F81090FFF764F86E
:1065FC008145BBD104F11401AAE72546E8E700BFA9
:10660C008C7C0B0038B543691A68002A054610DAF1
:10661C00B3F88620B3F884309A420AD103681B6918
:10662C009847044628B92B682846DB6A98472046C9
:10663C0038BD0120FCE710B54369B3F88620B3F8E8
:10664C0084309A42044605D06369B3F8842013441D
:10665C00187910BD03681B6998470028F4D14FF0D6
:10666C00FF30F6E7F8B543691746B3F88620B3F860
:10667C0084309A4205460E4616D06969B1F88430CA
:10668C00B1F88640E41ABC4228BF3C46043322468B
:10669C001944304600F04CFC6A69B2F8843023444B
:1066AC00A2F884302046F8BD03681B69984700287F
:1066BC00E3D14FF0FF34F5E742690023A2F88430B0
:1066CC004269A2F8863070472DE9F0411F460368F5
:1066DC000C46DB6A8AB0054616469847237DD5F8EA
:1066EC001480042B0CBF02200A2006220121FFF784
:1066FC00B3F8C8F800006B691B68002B08DA2B682C
:10670C002846DB6A0024984720460AB0BDE8F08191
:10671C002846FFF7D1FFB7B1002303A9F8B20393C2
:10672C00ADF81030FEF788FF0028E8D16869062321
:10673C000093006803AB41F20B0240F6FF71FFF7C8
:10674C0063F80028DBD11C22002103A800F0FEFB1B
:10675C00237D042B1DD14FF407733046ADF80C305C
:10676C00FEF7B2FFADF80E006068FEF7A5FF0490CF
:10677C006B691C22186803A9FFF756F80028BED1D4
:10678C0004340FCC6D698C350FC523682B70012434
:10679C00BAE740F61C233046ADF80C30FEF794FFF8
:1067AC0005AEADF80E00231D04F1140718685968E6
:1067BC00324603C20833BB421646F7D1D8E7000075
:1067CC0030B54269B2F886308BB004462BB1B2F8C2
:1067DC0084209A4201D1FFF76FFF61690868002895
:1067EC0018DBB1F886507F2D14D804310823C5F17D
:1067FC0080022944FFF720F8002813DD6369B3F801
:10680C0086200AB9A3F884206369B3F88620104463
:10681C00A3F886006369B3F88600B3F88430C01A15
:10682C000BB030BDFFF754F903680B2BF2D0FFF718
:10683C004FF903680B2BEDD020230025CDE9023551
:10684C00FFF746F903680193084B0949009302AA24
:10685C002B463220FFF788F863691868FEF7DCFFD7
:10686C0063694FF0FF321A60D4E700BF277D0B003D
:10687C00207D0B0010B5436904461868002801DB25
:10688C00FEF7CAFF63694FF0FF321A60606911228C
:10689C0000218C3000F05AFB2046BDE81040FFF779
:1068AC000BBF10B5002304460160C0F8843088305B
:1068BC00FFF7E0FB204610BD73B500234FF47A724E
:1068CC00C0E901320E4A0361026043610446AC2008
:1068DC000191FDF7D8FB051E05F10C0608D001232C
:1068EC00C5E90133074B01992B603046FFF7D9FFFF
:1068FC002046C4E90565FFF7DFFE02B070BD00BF9E
:10690C005C7D0B00407D0B0010B54FF0FF31044651
:10691C00FFF7D2FF204610BD10B5044600680028D2
:10692C0001DBFEF779FF204610BD0C30FFF7F4BFFA
:10693C00002240681146FFF763B8002240681146F8
:10694C00FFF77EB8002240681146FFF789B840680F
:10695C000022FFF77DB84068002281F00101FFF7AB
:10696C0067B8002340681A461946FFF759B8002348
:10697C0040681A461946FFF74BB80022406811468A
:10698C00FFF72EB8406800220221FFF731B8002330
:10699C0040681A46FFF71CB8024B04225A60024AA0
:1069AC001A60704718E70320A87D0B00002340688D
:1069BC001A46FFF70DB8406800220221FFF718B8FD
:1069CC00002240681146FFF70BB8002240681146C0
:1069DC00FFF716B8002340681A461946FFF718B897
:1069EC00002340681A461946FFF71AB84068002180
:1069FC00FFF73EB840680021FFF742B8406800221C
:106A0C0081F00101FFF714B840680022FFF720B8AD
:106A1C00002240681146FFF723B800224068114657
:106A2C00FFF70EB82DE9F04395B014460D46074616
:106A3C00FFF720FB00211C220DA8009100F086FA24
:106A4C0040230C9320466B460CAA0021FEF7C4FD94
:106A5C00044600284BD1024601216868FEF7D0FF9E
:106A6C000221804622466868FEF7CAFF009E8146D6
:106A7C002146002E3BD0002939D17368022B03D05C
:106A8C000A2B11D0F669F4E7B8F1000FFAD071694E
:106A9C0006A8043107ADFFF731FB0FCD3C1D0FC429
:106AAC002B6823704146EDE7B9F1000FEAD0746909
:106ABC00102201A800F04AFA06238DF8143001AD1B
:106ACC0004F108031834186859682A4603C20833BD
:106ADC00A3421546F7D101A906A807ADFFF7D8FACE
:106AEC000FCD3C1D0FC42B6823704946CAE7009894
:106AFC00FEF76AFD384615B0BDE8F083024B034A39
:106B0C001A6000225A60704720E70320E47D0B00D6
:106B1C00232813B502D9002002B010BDA0F10B033D
:106B2C00022B1AD8174C2178BFF35B8F11F001019F
:106B3C000BD120460191FDF7B9FA019928B1124801
:106B4C00FFF722F82046FDF7B6FA0F4B1878FEF740
:106B5C00A3FE0028DFD10120DEE7012809D800F0D0
:106B6C00A9F80021007CFEF73FFE80F00100C0B2C6
:106B7C00D2E709380128EED800F060F8007CFEF767
:106B8C00D3FDF2E7B8E60320BCE60320232838B592
:106B9C0004460D460AD8FF2908D0FFF7B9FF28B1E3
:106BAC0029462046BDE83840FEF726BD38BD38B52D
:106BBC0004460D46FEF728FDFF2810D0062804D801
:106BCC004D2323FA00F0C30709D42046FFF7A0FF9A
:106BDC0028B129462046BDE83840FEF71DBD38BD1A
:106BEC0010B50446FEF710FD031FDBB2012B08D9CC
:106BFC002046FFF78DFF20B12046BDE81040FEF780
:106C0C0013BD002010BD704738B5044614252A4624
:106C1C00002100F09BF92580402507492581284655
:106C2C00258200F06BF804496060284600F066F895
:106C3C00E060204638BD00BF187E0B0030B50E4D0D
:106C4C002978BFF35B8F11F0010487B011D128466E
:106C5C00FDF72CFA68B101A8FFF7D6FF01AA21466F
:106C6C000648FFF72FFB2846FDF725FA044800F0ED
:106C7C0059F9024807B030BD28E703202CE7032060
:106C8C00136C0B007047000038B520251423044604
:106C9C000360856005610649284600F02FF8044919
:106CAC006060284600F02AF8E060204638BD00BF3E
:106CBC00187E0B0030B50E4D2978BFF35B8F11F0A9
:106CCC00010487B011D12846FDF7F0F968B101A88D
:106CDC00FFF7DAFF01AA21460648FFF733FB2846E7
:106CEC00FDF7E9F9044800F01DF9024807B030BD82
:106CFC0044E7032048E70320916C0B00FDF7C5B96E
:106D0C00014900F0F9B800BF347E0B007FB50024B8
:106D1C001023CDE90234036815469E6912686B4650
:106D2C00CDE90044B0479DF8043003F00603062B70
:106D3C0003BF009B2B600120204604B070BD00985F
:106D4C00904214BF012006207047000010B5034B81
:106D5C000360044600F0CDF8204610BD747E0B0095
:106D6C0010B50446FFF7F2FF20460821FDF78FF916
:106D7C00204610BD2DE9F0411F46DDE90834DDF851
:106D8C00188098450646154607D1079900F0B4F8C7
:106D9C0018B165710020BDE8F0813946304600F02D
:106DAC00ABF80028F6D00123C4F800802571A3713C
:106DBC00F0E738B515461C4600F09EF820B10823C4
:106DCC00E36006232560237138BD73B505460C4678
:106DDC0001921E4600F090F850B9032E08D8236893
:106DEC00019A5B692946204602B0BDE870401847FD
:106DFC0002B070BD10B5034B03600446FFF7A6FF4D
:106E0C00204610BDD47E0B0010B50446FFF7F2FFF0
:106E1C0020460C21FDF73BF9204610BDF7B5089F25
:106E2C00974205460E4614460AD0A8680268089791
:106E3C00156A31462246AC4603B0BDE8F0406047C7
:106E4C001946019300F058F8019B0028EDD006205C
:106E5C0003B0F0BD2DE9F14F0D461946DDE90A4BA3
:106E6C00DDE90CA681461746984600F045F890B12E
:106E7C00002D3460377109DB61198A450CBF06217E
:106E8C000121B171002001B0BDE8F08F0235F9D1BC
:106E9C000123B371F6E7544506D15946484600F034
:106EAC002BF808B17771EDE7D9F808000368CDE944
:106EBC000CA6CDE90A4BDC693A4643462946A44662
:106ECC0001B0BDE8F04F60472DE9F04107460C4694
:106EDC0015461E46FFF76DFF48B9B86803689F69F1
:106EEC002A4633462146BC46BDE8F0416047BDE822
:106EFC00F081704700207047814208B50ED0406881
:106F0C0003782A2B0CD049680B782A2B08BF013147
:106F1C0000F052F8B0FA80F0400908BD0120FCE7FF
:106F2C000020FAE7002301461A46184600F056B82E
:106F3C000A44914200F1FF3300D1704710B511F8AB
:106F4C00014B03F8014F9142F9D110BD02440346A5
:106F5C00934200D1704703F8011BF9E738B5104B89
:106F6C001D68AB6B0446B3B91820FEF799FD0246B9
:106F7C00A86320B90B4B0C484221FEF7B1FD0B491D
:106F8C000B4BC0E900130B4B83600B238381002157
:106F9C000120C2E90401AB6B00221C615A6138BDAF
:106FAC0058E503200D7F0B00247F0B000E33CDAB77
:106FBC0034126DE6ECDE050010F8012B11F8013BE4
:106FCC00012A28BF9A42F7D0D01A7047034613F80B
:106FDC00012B002AFBD1181A013870472DE9F84310
:106FEC00DFF8B8800646D8F800001F460D469146DB
:106FFC0000F056F8254B1C6834B9254C1C60254B09
:10700C0013B11B68C4F8883063681F2B07DDD8F8F0
:10701C00000000F047F84FF0FF30BDE8F8834EB3A6
:10702C00D4F8880088B91C4B23B9D8F8000000F0BC
:10703C0038F8F0E74FF48470FEF732FD0028F4D0F6
:10704C000023C0E94033C4F88800636840F82390FB
:10705C0001229A4000EB8301D0F800311343C0F8B1
:10706C000031022EC1F8807002BFD0F804311343F6
:10707C00C0F804316368D8F800005A1C023362600F
:10708C0044F8235000F00EF80020C6E7E8E7032090
:10709C005CE7032000000000AD5A0B00BCE50320A8
:1070AC0070477047704700001D400B0059400B00A3
:1070BC0081400B0085400B000000000043616C6CAC
:1070CC00206F6E2070757265207669727475616CB4
:1070DC000054696D65723A0064656661756C742064
:1070EC00004D5342004C5342003C5350495365747D
:1070FC0074696E67732064656661756C743E003CE0
:10710C0053504953657474696E67732025732575E4
:10711C00202573204D4F444525753E00000000008E
:10712C00003E5B4F5B3E3E6B4F6B3E1C3E7C3E1C01
:10713C00183C7E3C181C577D571C1C5E7F5E1C0047
:10714C00183C1800FFE7C3E7FF0018241800FFE7FE
:10715C00DBE7FF30483A060E2629792926407F05C1
:10716C000507407F05253F5A3CE73C5A7F3E1C1CD7
:10717C0008081C1C3E7F14227F22145F5F005F5F97
:10718C0006097F017F006689956A60606060609483
:10719C00A2FFA29408047E040810207E2010080888
:1071AC002A1C08081C2A08081E101010100C1E0C93
:1071BC001E0C30383E3830060E3E0E060000000025
:1071CC000000005F00000007000700147F147F140C
:1071DC00242A7F2A12231308646236495620500051
:1071EC0008070300001C2241000041221C002A1C3D
:1071FC007F1C2A08083E0808008070300008080828
:10720C000808000060600020100804023E51494547
:10721C003E00427F400072494949462141494D3365
:10722C001814127F1027454545393C4A49493141CC
:10723C00211109073649494936464949291E00009A
:10724C0014000000403400000008142241141414EF
:10725C001414004122140802015909063E415D59DB
:10726C004E7C1211127C7F494949363E41414122E4
:10727C007F4141413E7F494949417F090909013E0E
:10728C00414151737F0808087F00417F4100204035
:10729C00413F017F081422417F404040407F021C47
:1072AC00027F7F0408107F3E4141413E7F0909095E
:1072BC00063E4151215E7F0919294626494949322A
:1072CC0003017F01033F4040403F1F2040201F3FF0
:1072DC004038403F63140814630304780403615975
:1072EC00494D43007F4141410204081020004141B7
:1072FC00417F040201020440404040400003070863
:10730C000020545478407F2844443838444444285E
:10731C00384444287F385454541800087E09021805
:10732C00A4A49C787F0804047800447D400020408D
:10733C00403D007F1028440000417F40007C0478D1
:10734C0004787C080404783844444438FC18242419
:10735C001818242418FC7C08040408485454542499
:10736C0004043F44243C4040207C1C2040201C3C16
:10737C004030403C44281028444C9090907C44640D
:10738C00544C4400083641000000770000004136A0
:10739C00080002010204023C2623263C1EA1A16126
:1073AC00123A4040207A3854545559215555794158
:1073BC002254547842215554784020545579400C2D
:1073CC001E52721239555555593954545459395510
:1073DC005454580000457C410002457D4200014553
:1073EC007C407D1211127DF0282528F07C545545E7
:1073FC00002054547C547C0A097F49324949493253
:10740C003A4444443A324A4848303A4141217A3A63
:10741C0042402078009DA0A07D3D4242423D3D402F
:10742C0040403D3C24FF2424487E4943662B2FFCDE
:10743C002F2BFF0929F620C0887E0903205454798C
:10744C00410000447D413048484A32384040227A5D
:10745C00007A0A0A727D0D19317D2629292F2826DA
:10746C002929292630484D402038080808080808E2
:10747C000808382F10C8ACBA2F102834FA00007B3B
:10748C00000008142A142222142A1408550055004E
:10749C0055AA55AA55AAFF55FF55FF000000FF003D
:1074AC00101010FF00141414FF001010FF00FF1038
:1074BC0010F010F0141414FC001414F700FF00006A
:1074CC00FF00FF1414F404FC141417101F10101FE9
:1074DC00101F1414141F00101010F0000000001FD7
:1074EC00101010101F10101010F010000000FF10E2
:1074FC001010101010101010FF10000000FF1400DE
:10750C0000FF00FF00001F10170000FC04F414140F
:10751C001710171414F404F40000FF00F7141414DB
:10752C0014141414F700F7141414171410101F105B
:10753C001F141414F4141010F010F000001F101F7E
:10754C000000001F14000000FC140000F010F010EC
:10755C0010FF10FF141414FF141010101F00000063
:10756C0000F010FFFFFFFFFFF0F0F0F0F0FFFFFF67
:10757C000000000000FFFF0F0F0F0F0F38444438BE
:10758C0044FC4A4A4A347E02020606027E027E020D
:10759C0063554941633844443C04407E201E200618
:1075AC00027E020299A5E7A5991C2A492A1C4C7255
:1075BC0001724C304A4D4D303048784830BC625ADC
:1075CC00463D3E494949007E0101017E2A2A2A2A6C
:1075DC002A44445F444440514A444040444A514048
:1075EC000000FF0103E080FF000008086B6B083609
:1075FC0012362436060F090F06000018180000007A
:10760C001010003040FF0101001F01011E00191D68
:10761C001712003C3C3C3C00000000000000000045
:10762C00000000000000000000000000CD490B002D
:10763C00495D0B00A1400B00D3430B00D5430B005D
:10764C0007440B00E3430B00F5430B0015430B0001
:10765C00D3430B00FF450B00FD450B001F440B00F3
:10766C005D440B0097440B00DD440B00F9440B0008
:10767C007D450B000000000000000000DD4A0B00FF
:10768C00FD4A0B00CD490B00495D0B000D4D0B0065
:10769C00D3430B00D5430B0007440B00E3430B0013
:1076AC00F5430B0015430B00D3430B00FF450B00B8
:1076BC00AB4E0B0053540B0005540B0097440B00BE
:1076CC00DD440B00F9440B007D450B00000000006D
:1076DC0000000000C1420B0095420B0097420B00CA
:1076EC00000000000001800000000000000000000D
:1076FC00038000000000000000000007C000000034
:10770C0000000000000007C00000000000000000A6
:10771C00000FC00000000000000000001FE000008F
:10772C00000000000000001FE0000000000000004E
:10773C0000003FE00000000000000000003FF000EF
:10774C0000000000000000007FF0000000000000BE
:10775C00001FF87FF0000000000000003FFE7FF0EB
:10776C00000000000000003FFF7FF0000000000060
:10777C0000001FFFFBE0000000000000000FFFF9FD
:10778C00FFC00000000000000FFFF9FFF800000030
:10779C0000000007FFF1FFFF00000000000003FCE9
:1077AC0073FFFF80000000000001FE3FFFFF800020
:1077BC000000000000FF1E0FFF0000000000000092
:1077CC007FFE1FFC000000000000003FFFFFF800E0
:1077DC000000000000000FDFFFE0000000000000D0
:1077EC00001F19FFC0000000000000003F3CFF001C
:1077FC00000000000000007E7CF80000000000008B
:10780C0000007FFE7C0000000000000000FFFFFC79
:10781C000000000000000000FFFFFE000000000060
:10782C00000000FFFFFE0000000000000001FFEF61
:10783C00FE0000000000000001FFCFFE0000000071
:10784C0000000003FF07FE0000000000000003FC26
:10785C0007FE0000000000000003F003FE00000023
:10786C0000000000018000FE00000000000000008D
:10787C0000007E000000000000000000003E000040
:10788C0000000000000000000C00000000000007D9
:10789C008000FC000003C0000000078001FC000019
:1078AC0003C0000000078001FC000003C0000000C2
:1078BC00078001E00000001E000000078001E000CE
:1078CC0000001E007FE3F79FF9FDE7787BDFC0FF28
:1078DC00F7FFBFFDFDFF787BDFC0FFF7FFBFFDFDAE
:1078EC00FF787BDFC0F0F787BC3DE1FF787BDE00E3
:1078FC00F0F787BC3DE1F0787BDE0000F787803D38
:10790C00E1E0787BDE007FF7879FFDE1E0787BDEAE
:10791C0000FFF787BFFDE1E0787BDE00F0F787BC66
:10792C003DE1E0787BDE00F0F787BC3DE1E0787B61
:10793C00DE00F0F787BC3DE1E0787BDE00FFF7FF6F
:10794C00BFFDE1E07FFBDFC0FFF7FFBFFDE1E07FA4
:10795C00FBDFC07CF3F39F3DE1E03E7BCFC000003A
:10796C00000000000000000000FFFFFFFFFFFFFF12
:10797C00FFFFFFC0FFFFFFFFFD68DB111A31C0FFE7
:10798C00FFFFFFFD2B5AFB6AEFC0FFFFFFFFFD4B14
:10799C005B3B1A33C0FFFFFFFFFD6B5BDB6AFDC077
:1079AC00000060000000000000000000000000006B
:1079BC0000E00000000000000000000000000001DA
:1079CC00E00000000000000000000000000001F0DA
:1079DC000000000000000000000000000003F000A8
:1079EC0000000000000000000000000007F0000094
:1079FC00000000000000000000000007F80000007C
:107A0C00000000000000000000000FF80000000360
:107A1C00C0007E000001E0007F0FF800000003C0F2
:107A2C0000FE000001E000FFEFF800000003C000C2
:107A3C00FE000001E000FFFFF800000003C000F0B2
:107A4C000000000F007FFE7FC0000003C000F000AC
:107A5C0000000F003FFE7FF83FF1FBCFFCFEF3BCB4
:107A6C003DEFE01FFE7FFF7FFBFFDFFEFEFFBC3D17
:107A7C00EFE01FC6FFFF7FFBFFDFFEFEFFBC3DEF0D
:107A8C00E00FE3C7FE787BC3DE1EF0FFBC3DEF00CA
:107A9C0007FF87FC787BC3DE1EF0F83C3DEF00014E
:107AAC00FFFFF0007BC3C01EF0F03C3DEF0001F384
:107ABC007FE03FFBC3CFFEF0F03C3DEF0003E33F24
:107ACC00807FFBC3DFFEF0F03C3DEF0007E73C009E
:107ADC00787BC3DE1EF0F03C3DEF0007FFBE007864
:107AEC007BC3DE1EF0F03C3DEF0007FFFE00787B11
:107AFC00C3DE1EF0F03C3DEF000FFFFE007FFBFFEE
:107B0C00DFFEF0F03FFDEFE00FFFFF007FFBFFDF3C
:107B1C00FEF0F03FFDEFE00FF9FF003E79F9CF9E4C
:107B2C00F0F01F3DE7E01FF1FF0000000000000037
:107B3C0000000000001F80FF007FFFFFFFFFFFFF22
:107B4C00FFFFFFE01C007F007FFFFFFFFEB46D888E
:107B5C008D18E000001F007FFFFFFFFE95AD7DB587
:107B6C0077E000000F007FFFFFFFFEA5AD9D8D1994
:107B7C00E0000006007FFFFFFFFEB5ADEDB57EE037
:107B8C000000000000000000E14C0B00F94C0B0061
:107B9C00CD490B00495D0B000D4D0B00D3430B0081
:107BAC00D5430B0007440B00E3430B00F5430B00DC
:107BBC0015430B00D3430B00FF450B00AB4E0B00E2
:107BCC0053540B0005540B0097440B00DD440B0081
:107BDC00F9440B007D450B000080C0E0F0F8FCFE82
:107BEC00000103070F1F3F7FAED580A8D300408D47
:107BFC002000A1C8DB40A4A62EAFDA02818FDA12D6
:107C0C0081DA02812200FF21000000000000000048
:107C1C00000000006B5B0B00615B0B00575B0B0003
:107C2C004D5B0B00415B0B00355B0B00F9690B00E6
:107C3C00016A0B00295B0B00215B0B00175B0B002F
:107C4C000D5B0B00316A0B0000081018202830382F
:107C5C0000000000000000006170700025592D2507
:107C6C006D2D25645425483A254D3A2553257A0027
:107C7C0061736374696D6500000000000000000012
:107C8C001D600B000D600B000F600B00000000006E
:107C9C00000000002F610B0097610B006D610B0061
:107CAC00495D0B005F610B0031610B0041610B0002
:107CBC0091610B0051610B0029610B000000000069
:107CCC000000000057620B00C3620B009B620B00AC
:107CDC00495D0B006B620B0087620B0079620B0035
:107CEC0095620B0059620B005D620B0000000000F6
:107CFC0000000000F9620B0043630B001B630B00D8
:107D0C00FB620B0023630B002B630B0033630B0034
:107D1C003B630B00776972696E670072656376204E
:107D2C006572726F72203D20256400000000000017
:107D3C000000000029640B004D640B0037690B0038
:107D4C005B640B002D640B000000000000000000C1
:107D5C009D5E0B00B55E0B00A5630B00BF630B00B3
:107D6C00CD670B00E9630B0043660B001D640B0031
:107D7C00D5660B0015650B0071660B0081680B0056
:107D8C0011660B001F640B00D1630B0061640B00C8
:107D9C00F5640B0000000000000000009B690B0064
:107DAC0091690B0087690B003D690B007B690B0027
:107DBC006F690B00F9690B00016A0B0063690B001A
:107DCC005B690B0051690B0047690B00316A0B00B2
:107DDC000000000000000000B9690B00C3690B0033
:107DEC00CD690B00D7690B00E1690B00ED690B0045
:107DFC00F9690B00016A0B00096A0B00156A0B008C
:107E0C001D6A0B00276A0B00316A0B00005374319A
:107E1C00395F53705F6D616B655F73686172656428
:107E2C005F74616700000000747E0B00197E0B000C
:107E3C00D47E0B00487E0B00F87E0B004E31305F79
:107E4C005F637878616269763131375F5F636C614B
:107E5C0073735F747970655F696E666F45000000BF
:107E6C00000000003C7E0B00596D0B006D6D0B008B
:107E7C00016F0B00016F0B00D76D0B00196D0B0020
:107E8C00BF6D0B00816D0B004B6D0B00D47E0B0096
:107E9C00A47E0B003C7E0B004E31305F5F63787824
:107EAC00616269763132305F5F73695F636C6173F5
:107EBC00735F747970655F696E666F4500000000D2
:107ECC0000000000987E0B00016E0B00156E0B007D
:107EDC00016F0B00016F0B00D76D0B00196D0B00C0
:107EEC00D56E0B00616E0B00296E0B00747E0B00BF
:107EFC00007F0B00537439747970655F696E666F1F
:107F0C00005245454E54206D616C6C6F6320737547
:107F1C0063636565646564002F6D6E742F776F7293
:107F2C006B73706163652F776F726B7370616365D0
:107F3C002F4743432D31302D706970656C696E6528
:107F4C002F6A656E6B696E732D4743432D31302D4F
:107F5C00706970656C696E652D34385F3230323003
:107F6C00313132345F313630363138303634312FAE
:107F7C007372632F6E65776C69622F6E65776C69AF
:107F8C00622F6C6962632F7374646C69622F726107
:107F9C006E642E630000000031420B00755B0B0019
:107FAC00ED5C0B00395D0B00715E0B00815E0B000C
:107FBC00C95E0B00A5690B00096B0B0000000000EB
:047FCC0000000000B1
:107FD000040000001400000003000000474E55009C
:107FE000D8440D0B9E0EEC3FEF84E35D62F7FBF28D
:047FF000E78EC476DE
:047FF4000000000089
:107FF8007C7C0B005CE50320000000000000000012
:108008000000000000000000000000000000000068
:108018000000000000000000000000000000000058
:108028000000000000000000000000000000000048
:108038000000000000000000000000000000000038
:108048000000000000000000000000000000000028
:0C8058000000000000000000ECE7032026
:10806400FFFFFFFF00000102030405060708090AD9
:108074000B0C0D0E0F101112131415161718191AD4
:088084001B1C1D1E1F2028001B
:04808C0078563412DC
:04000003B000401CED
:00000001FF
